{
 "cells": [
  {
   "cell_type": "code",
   "execution_count": 19,
   "metadata": {},
   "outputs": [
    {
     "name": "stderr",
     "output_type": "stream",
     "text": [
      "DEBUG:BitcoinRPC:-274-> getnewaddress [\"\", \"legacy\"]\n",
      "DEBUG:BitcoinRPC:<-274- \"miuQJtcbYvC7uF12h6ahkjgGhEX4eMsjmx\"\n",
      "DEBUG:BitcoinRPC:-275-> getnewaddress [\"\", \"legacy\"]\n",
      "DEBUG:BitcoinRPC:<-275- \"mydo5runmx2GH7kecVweU1jx6AE4cA8Txf\"\n",
      "DEBUG:BitcoinRPC:-276-> getnewaddress [\"\", \"legacy\"]\n",
      "DEBUG:BitcoinRPC:<-276- \"mnHTBModaKGUoaKBesyHs3jmWNFk4YxHSq\"\n",
      "INFO:BitcoinRPC:New Legacy address A generated: miuQJtcbYvC7uF12h6ahkjgGhEX4eMsjmx\n",
      "INFO:BitcoinRPC:New Legacy address B generated: mydo5runmx2GH7kecVweU1jx6AE4cA8Txf\n",
      "INFO:BitcoinRPC:New Legacy address C generated: mnHTBModaKGUoaKBesyHs3jmWNFk4YxHSq\n",
      "DEBUG:BitcoinRPC:-277-> sendtoaddress [\"miuQJtcbYvC7uF12h6ahkjgGhEX4eMsjmx\", 10.0]\n",
      "DEBUG:BitcoinRPC:<-277- \"547968e2b59cc4f1846bfef41b6a27f6ed5ca94dd88111246913207b39f23cf3\"\n",
      "INFO:BitcoinRPC:Sent 10.0 BTC to address A with TXID: 547968e2b59cc4f1846bfef41b6a27f6ed5ca94dd88111246913207b39f23cf3\n",
      "INFO:BitcoinRPC:Mining 6 blocks to confirm the transaction 547968e2b59cc4f1846bfef41b6a27f6ed5ca94dd88111246913207b39f23cf3...\n",
      "DEBUG:BitcoinRPC:-278-> generatetoaddress [6, \"miuQJtcbYvC7uF12h6ahkjgGhEX4eMsjmx\"]\n",
      "DEBUG:BitcoinRPC:<-278- [\"68fb5b596aa9e48435e96ce949e35385128c3eff810decbc81753331525babfc\", \"46eb4b09ee9b0609efd2eb20937de33fd72603b10191f1429e5b949ca780adcd\", \"39c9bc37c57a07f4beb533b6daa573a3475e638e22e56574d192691355cbc45f\", \"76b94b10881e8b83579aba1302472db5ee931c5fd928c138da026a5a708c9b8c\", \"23a5cd42162af070b390b025d15e0f39a6b91ba367c72648faa2218e303465b9\", \"114212363a49a967dbc4b1d2943c8fb21c9cd6d6656499e5f258b0cbfc0f15bd\"]\n",
      "INFO:BitcoinRPC:6 blocks mined.\n",
      "DEBUG:BitcoinRPC:-279-> gettransaction [\"547968e2b59cc4f1846bfef41b6a27f6ed5ca94dd88111246913207b39f23cf3\"]\n",
      "DEBUG:BitcoinRPC:<-279- {\"amount\": 0.0, \"fee\": -0.0001842, \"confirmations\": 6, \"blockhash\": \"68fb5b596aa9e48435e96ce949e35385128c3eff810decbc81753331525babfc\", \"blockheight\": 3079, \"blockindex\": 1, \"blocktime\": 1742749980, \"txid\": \"547968e2b59cc4f1846bfef41b6a27f6ed5ca94dd88111246913207b39f23cf3\", \"wtxid\": \"547968e2b59cc4f1846bfef41b6a27f6ed5ca94dd88111246913207b39f23cf3\", \"walletconflicts\": [], \"mempoolconflicts\": [], \"time\": 1742749980, \"timereceived\": 1742749980, \"bip125-replaceable\": \"no\", \"details\": [{\"address\": \"miuQJtcbYvC7uF12h6ahkjgGhEX4eMsjmx\", \"category\": \"send\", \"amount\": -10.0, \"label\": \"\", \"vout\": 0, \"fee\": -0.0001842, \"abandoned\": false}, {\"address\": \"miuQJtcbYvC7uF12h6ahkjgGhEX4eMsjmx\", \"parent_descs\": [\"pkh(tpubD6NzVbkrYhZ4Y4hhKhjJxbYYg3XE427w6hJARdozBqk8PZvUjZmEYUDDNDCVsHi4DmAwYP1Q5sibqynBEWaLDqiTcsjkc2rnijLcifYoT4k/44h/1h/0h/0/*)#2ue9gep2\"], \"category\": \"receive\", \"amount\": 10.0, \"label\": \"\", \"vout\": 0, \"abandoned\": false}], \"hex\": \"020000000c7e73dc6fb5c4955ce06c3ecde205292e4d322250bbd2e8d77ba4bb8616c1c474000000006a4730440220073e465a2405d1dba8401c6e84072dc6e3e6a381d175841cd0db4b0a7da4e1330220153004c27610af533b6c5ffda44fac7c244dc7e3b9a5018da55efc066149ec5f012103c26eb0a0d7a8031d4d1b8f60277275f9c7996da2ca3405d1cd3ffeb37ef52043fdfffffffbbdf3d354cef1a4f13dc51cac1d62848a528638ab75dd01c501ca1012840030000000006a4730440220682c67ddc5bdb3183942375d18ea88d2aef71d2ada0ce515bcbc9b46e71ab8b70220112cacc4dc2a3b024ca42f565fe11ae1d8ec5d04976e4b3cea0699b2fcf4d2b3012102e8d8ea66052054d9a906c4caa5579e6163895c3ca774997c9e2fee30f9830ff6fdffffff54fde66c95f3117c423f0ce89674af6b6f02ffb84aaaad015651288bcfb0809b000000006a47304402207d4e508681f1bfaa2d17b2f555e488e1cf0117ad3f4af294018735e28a28db9602201428ae85abf8a7a074d9ba1b8673c0ff05ace196e39ceac0ab21a55dad51162a012102044310c221de5cf03a478421a794c147811baa5e77fea64fcb304894537f6e87fdffffff31fd8a6e38bebceeaf3e91b4bfccdeadc698387e8d3b282f42edc8fea8cffb98000000006a47304402206227fd05856a0eb93c56c63287e61f8f559ae34e3690432d839b395ca7157e660220307504af7160c7c28bc08fbf88a7aec5eaffa3e043cd971b84691169e956679e01210327893b977b5faf615b71bbacc1c501391c055ecaebeaf665372dc29d6467844afdffffff52c1d6298624ca7a7358eb317d1b0b3274cf20864306abc92c7cef8e8065d97c000000006a47304402205365333e1e22cab427f1f734975581d8c468e651ee75cbc34ea09000e046a19302207105bc9d62b265bf0e072c85bcb0d85036567e6ebfae5192c5578efe05c8bd4c0121033341f5caf2f6d8857438b5b4c1946d220e499ff1fecb40ce2b81c122200fca22fdffffffa24f6b72d936177487fb9f3414c57af00d75b6b32f67b304a5d7ddefd7d5bb7e000000006a47304402203e3246d9ea793b1630f227bfab8dd99c533486c5f864dafa440a905f2301ac7002201ae0c13799727e5a15449de5d9b30517f8766657c9037066ef935ad67a937f240121039c004dd1ec08f0df348ca4c6a2ab5c629e5238084513fb938ac1242e196e85a7fdffffffa8c5f34c24b7c4e217195c2a101cec2e930538cd5facbb5f048746650664e572000000006a47304402207d22db5aa9926f818474a20f05fcdfb6a8007e84c01c8889a8d3076d251b8db202203648a4cc6a7546a49a929c232582fa3de0918ca2cd88611884c881fceb9a525301210327893b977b5faf615b71bbacc1c501391c055ecaebeaf665372dc29d6467844afdffffff8ee06f8bfdf8963ed8f49651e11c2c067136ecad6c143ce5edfd6a96c2bf4b9d000000006a47304402205d1fa3dc24965ad5768772e18908e3efbafc48cf8ff49a464ef28d046da7ae80022066ffe97c9bcc512d2f7f459b30996cdd3fcab5a1f13b0797c15210df5a10be840121021d5f74801ff902fa5fc56962d9b2ead26f0fa853af290b69d7fa9be632b91a5afdffffffe6a5f1d09e3af814223046aec06278f79285fab7a04ccfafe811314c8d1ef0ea000000006a4730440220306654cd62c0bdbbf08bb4d1549bb41ea76d9dde0416a82c58694bba324fb29d02205b07c868367d37a02f52704549e53460207388f274f10cc2c4ac0546f24148c6012103bb698d694fcd74abff9b1ad538d431e13e69c29019d37782b0fbfe43bf19396dfdfffffff71d1c079ba48b33f15149833b125cf208b7222b3374b5ad71b5fb28e00f7c42000000006a47304402205d6bf34ee7e0c0dca75ede0138a508c515578099efcaf64342dcf616d0a96e6002205893fcef5d3dfeb0f153a49ae10ed74e753d631b2f626416de5457e1c92aebf9012103fd35c16c359aa9f3a52fcbef7ac5d80cbe6547f3f6c3903cf60a597b27c6c20efdffffff3c008ba448c0767ded79dc8cbfc9d3ded297c011a02bbcc4c72429452a8144a4000000006a473044022032f5295fc3eb16f9f76461dc13ff7adf274bafdfdfaa841b06d6a34fb9c18cae022070808a2f279e99d301b81b52f7fe4cb172b37122adc99861ada6137cd644c78c0121027100e7c3b661fc913137c6fa168afc58f1732d884e7ab0b0af2806646a27c609fdffffff4cdbe64d61a506135c18fe25faaaea05e17adea026193aba759e2432ea610b8f000000006a473044022051c92d407620dcd29badd481258e9d86ff838fccb4e0acdc9cdea88422f0b1dd02203c3125dd5e3538cbd24168f414f439953902a9117d6c69ea5f9d9dac27fc1e75012103fd35c16c359aa9f3a52fcbef7ac5d80cbe6547f3f6c3903cf60a597b27c6c20efdffffff0200ca9a3b000000001976a91425273e87cc847e7a29ef66abc6f0bc374f11b39288acaf9d0900000000001976a914bcda44551c218c84bd5ee46c1416e8ff19c5ca5c88ac060c0000\", \"lastprocessedblock\": {\"hash\": \"114212363a49a967dbc4b1d2943c8fb21c9cd6d6656499e5f258b0cbfc0f15bd\", \"height\": 3084}}\n",
      "INFO:BitcoinRPC:Transaction 547968e2b59cc4f1846bfef41b6a27f6ed5ca94dd88111246913207b39f23cf3 has reached 6 confirmations.\n",
      "DEBUG:BitcoinRPC:-280-> getbalance []\n",
      "DEBUG:BitcoinRPC:<-280- 14810.65429145\n",
      "INFO:BitcoinRPC:Wallet balance after sending transaction: 14810.65429145 BTC\n",
      "DEBUG:BitcoinRPC:-281-> getreceivedbyaddress [\"miuQJtcbYvC7uF12h6ahkjgGhEX4eMsjmx\"]\n",
      "DEBUG:BitcoinRPC:<-281- 10.0\n",
      "INFO:BitcoinRPC:Balance of address miuQJtcbYvC7uF12h6ahkjgGhEX4eMsjmx: 10.00000000 BTC\n",
      "DEBUG:BitcoinRPC:-282-> listunspent [0, 9999999, [\"miuQJtcbYvC7uF12h6ahkjgGhEX4eMsjmx\"]]\n",
      "DEBUG:BitcoinRPC:<-282- [{\"txid\": \"547968e2b59cc4f1846bfef41b6a27f6ed5ca94dd88111246913207b39f23cf3\", \"vout\": 0, \"address\": \"miuQJtcbYvC7uF12h6ahkjgGhEX4eMsjmx\", \"label\": \"\", \"scriptPubKey\": \"76a91425273e87cc847e7a29ef66abc6f0bc374f11b39288ac\", \"amount\": 10.0, \"confirmations\": 6, \"spendable\": true, \"solvable\": true, \"desc\": \"pkh([6ec7dc00/44h/1h/0h/0/77]02bda8541e7e1ce5d4877af7ca8b334aee573825be27494d3b6de52ec0c1bf8957)#sxvr5x04\", \"parent_descs\": [\"pkh(tpubD6NzVbkrYhZ4Y4hhKhjJxbYYg3XE427w6hJARdozBqk8PZvUjZmEYUDDNDCVsHi4DmAwYP1Q5sibqynBEWaLDqiTcsjkc2rnijLcifYoT4k/44h/1h/0h/0/*)#2ue9gep2\"], \"safe\": true}]\n",
      "INFO:BitcoinRPC:UTXOs for Address A: [{'txid': '547968e2b59cc4f1846bfef41b6a27f6ed5ca94dd88111246913207b39f23cf3', 'vout': 0, 'address': 'miuQJtcbYvC7uF12h6ahkjgGhEX4eMsjmx', 'label': '', 'scriptPubKey': '76a91425273e87cc847e7a29ef66abc6f0bc374f11b39288ac', 'amount': Decimal('10.00000000'), 'confirmations': 6, 'spendable': True, 'solvable': True, 'desc': 'pkh([6ec7dc00/44h/1h/0h/0/77]02bda8541e7e1ce5d4877af7ca8b334aee573825be27494d3b6de52ec0c1bf8957)#sxvr5x04', 'parent_descs': ['pkh(tpubD6NzVbkrYhZ4Y4hhKhjJxbYYg3XE427w6hJARdozBqk8PZvUjZmEYUDDNDCVsHi4DmAwYP1Q5sibqynBEWaLDqiTcsjkc2rnijLcifYoT4k/44h/1h/0h/0/*)#2ue9gep2'], 'safe': True}]\n",
      "INFO:BitcoinRPC:Selected UTXO: txid=547968e2b59cc4f1846bfef41b6a27f6ed5ca94dd88111246913207b39f23cf3, vout=0, amount=10.00000000 BTC\n",
      "DEBUG:BitcoinRPC:-283-> createrawtransaction [[{\"txid\": \"547968e2b59cc4f1846bfef41b6a27f6ed5ca94dd88111246913207b39f23cf3\", \"vout\": 0}], {\"mydo5runmx2GH7kecVweU1jx6AE4cA8Txf\": 9.9999}]\n",
      "DEBUG:BitcoinRPC:<-283- \"0200000001f33cf2397b201369241181d84da95cedf6276a1bf4fe6b84f1c49cb5e26879540000000000fdffffff01f0a29a3b000000001976a914c6bd7ccf3bd0aed2d3ac8b7d62c675ea46dabad788ac00000000\"\n",
      "INFO:BitcoinRPC:Raw transaction created: 0200000001f33cf2397b201369241181d84da95cedf6276a1bf4fe6b84f1c49cb5e26879540000000000fdffffff01f0a29a3b000000001976a914c6bd7ccf3bd0aed2d3ac8b7d62c675ea46dabad788ac00000000\n",
      "DEBUG:BitcoinRPC:-284-> signrawtransactionwithwallet [\"0200000001f33cf2397b201369241181d84da95cedf6276a1bf4fe6b84f1c49cb5e26879540000000000fdffffff01f0a29a3b000000001976a914c6bd7ccf3bd0aed2d3ac8b7d62c675ea46dabad788ac00000000\"]\n",
      "DEBUG:BitcoinRPC:<-284- {\"hex\": \"0200000001f33cf2397b201369241181d84da95cedf6276a1bf4fe6b84f1c49cb5e2687954000000006a473044022062f6562c74297dacb5dd023ae79e173bec3021727c10884bf6d6532379ab7410022050822070867084321d8cf09e91edefdf26bea7e04b4cee543008064b7fccb512012102bda8541e7e1ce5d4877af7ca8b334aee573825be27494d3b6de52ec0c1bf8957fdffffff01f0a29a3b000000001976a914c6bd7ccf3bd0aed2d3ac8b7d62c675ea46dabad788ac00000000\", \"complete\": true}\n",
      "INFO:BitcoinRPC:Signed transaction hex: 0200000001f33cf2397b201369241181d84da95cedf6276a1bf4fe6b84f1c49cb5e2687954000000006a473044022062f6562c74297dacb5dd023ae79e173bec3021727c10884bf6d6532379ab7410022050822070867084321d8cf09e91edefdf26bea7e04b4cee543008064b7fccb512012102bda8541e7e1ce5d4877af7ca8b334aee573825be27494d3b6de52ec0c1bf8957fdffffff01f0a29a3b000000001976a914c6bd7ccf3bd0aed2d3ac8b7d62c675ea46dabad788ac00000000\n",
      "DEBUG:BitcoinRPC:-285-> sendrawtransaction [\"0200000001f33cf2397b201369241181d84da95cedf6276a1bf4fe6b84f1c49cb5e2687954000000006a473044022062f6562c74297dacb5dd023ae79e173bec3021727c10884bf6d6532379ab7410022050822070867084321d8cf09e91edefdf26bea7e04b4cee543008064b7fccb512012102bda8541e7e1ce5d4877af7ca8b334aee573825be27494d3b6de52ec0c1bf8957fdffffff01f0a29a3b000000001976a914c6bd7ccf3bd0aed2d3ac8b7d62c675ea46dabad788ac00000000\"]\n",
      "DEBUG:BitcoinRPC:<-285- \"110d9513934208e4e8f4ef723682406f8b7fabc68cf665faa2b19dfd3a0acf19\"\n",
      "INFO:BitcoinRPC:Broadcasted transaction with TXID: 110d9513934208e4e8f4ef723682406f8b7fabc68cf665faa2b19dfd3a0acf19\n",
      "INFO:BitcoinRPC:Mining 6 blocks to confirm the transaction 110d9513934208e4e8f4ef723682406f8b7fabc68cf665faa2b19dfd3a0acf19...\n",
      "DEBUG:BitcoinRPC:-286-> generatetoaddress [6, \"mydo5runmx2GH7kecVweU1jx6AE4cA8Txf\"]\n",
      "DEBUG:BitcoinRPC:<-286- [\"5a55f6aa90843c7cbdad98d8c1d9a4e682214afe652637cc2ba04f0d0d27e9c2\", \"3062ba0d0b1571db239dfd022560ad96901ab38114a4edc3ac257e003ea16fb6\", \"764cf25bfcbe400f08fa65c83ffc833818fbe58ca429187b86a3530f830e1d71\", \"0f2477f40b8f8d8af1457097fd95e2bb621da439bf9ac57a12fb5dfa89661682\", \"0aeb3d6124e4835da4157aeaa985dcea7a64d92687563a9826c5e3f9c26b686b\", \"781865d41f351f3aeb5b50d58e62d1c75d28cda9fcc1002c9e091d607472df06\"]\n",
      "INFO:BitcoinRPC:6 blocks mined.\n",
      "DEBUG:BitcoinRPC:-287-> getreceivedbyaddress [\"mydo5runmx2GH7kecVweU1jx6AE4cA8Txf\"]\n",
      "DEBUG:BitcoinRPC:<-287- 9.9999\n",
      "INFO:BitcoinRPC:Balance of Address B after transaction: 9.99990000 BTC\n",
      "DEBUG:BitcoinRPC:-288-> listunspent [0, 9999999, [\"mydo5runmx2GH7kecVweU1jx6AE4cA8Txf\"]]\n",
      "DEBUG:BitcoinRPC:<-288- [{\"txid\": \"110d9513934208e4e8f4ef723682406f8b7fabc68cf665faa2b19dfd3a0acf19\", \"vout\": 0, \"address\": \"mydo5runmx2GH7kecVweU1jx6AE4cA8Txf\", \"label\": \"\", \"scriptPubKey\": \"76a914c6bd7ccf3bd0aed2d3ac8b7d62c675ea46dabad788ac\", \"amount\": 9.9999, \"confirmations\": 6, \"spendable\": true, \"solvable\": true, \"desc\": \"pkh([6ec7dc00/44h/1h/0h/0/78]03a31f8bd96cb475011f981eb956330d518540ecbfd31e026e76354072b22ace2f)#290dy4qu\", \"parent_descs\": [\"pkh(tpubD6NzVbkrYhZ4Y4hhKhjJxbYYg3XE427w6hJARdozBqk8PZvUjZmEYUDDNDCVsHi4DmAwYP1Q5sibqynBEWaLDqiTcsjkc2rnijLcifYoT4k/44h/1h/0h/0/*)#2ue9gep2\"], \"safe\": true}]\n",
      "INFO:BitcoinRPC:UTXOs for Address B: [{'txid': '110d9513934208e4e8f4ef723682406f8b7fabc68cf665faa2b19dfd3a0acf19', 'vout': 0, 'address': 'mydo5runmx2GH7kecVweU1jx6AE4cA8Txf', 'label': '', 'scriptPubKey': '76a914c6bd7ccf3bd0aed2d3ac8b7d62c675ea46dabad788ac', 'amount': Decimal('9.99990000'), 'confirmations': 6, 'spendable': True, 'solvable': True, 'desc': 'pkh([6ec7dc00/44h/1h/0h/0/78]03a31f8bd96cb475011f981eb956330d518540ecbfd31e026e76354072b22ace2f)#290dy4qu', 'parent_descs': ['pkh(tpubD6NzVbkrYhZ4Y4hhKhjJxbYYg3XE427w6hJARdozBqk8PZvUjZmEYUDDNDCVsHi4DmAwYP1Q5sibqynBEWaLDqiTcsjkc2rnijLcifYoT4k/44h/1h/0h/0/*)#2ue9gep2'], 'safe': True}]\n",
      "INFO:BitcoinRPC:Selected UTXO: txid=110d9513934208e4e8f4ef723682406f8b7fabc68cf665faa2b19dfd3a0acf19, vout=0, amount=9.99990000 BTC\n",
      "DEBUG:BitcoinRPC:-289-> createrawtransaction [[{\"txid\": \"110d9513934208e4e8f4ef723682406f8b7fabc68cf665faa2b19dfd3a0acf19\", \"vout\": 0}], {\"mnHTBModaKGUoaKBesyHs3jmWNFk4YxHSq\": 9.99989}]\n",
      "DEBUG:BitcoinRPC:<-289- \"020000000119cf0a3afd9db1a2fa65f68cc6ab7f8b6f40823672eff4e8e408429313950d110000000000fdffffff01089f9a3b000000001976a9144a3b2b2ccbec7be08d3ad0d1a6ce832911a081b388ac00000000\"\n",
      "INFO:BitcoinRPC:Raw transaction created: 020000000119cf0a3afd9db1a2fa65f68cc6ab7f8b6f40823672eff4e8e408429313950d110000000000fdffffff01089f9a3b000000001976a9144a3b2b2ccbec7be08d3ad0d1a6ce832911a081b388ac00000000\n",
      "DEBUG:BitcoinRPC:-290-> signrawtransactionwithwallet [\"020000000119cf0a3afd9db1a2fa65f68cc6ab7f8b6f40823672eff4e8e408429313950d110000000000fdffffff01089f9a3b000000001976a9144a3b2b2ccbec7be08d3ad0d1a6ce832911a081b388ac00000000\"]\n",
      "DEBUG:BitcoinRPC:<-290- {\"hex\": \"020000000119cf0a3afd9db1a2fa65f68cc6ab7f8b6f40823672eff4e8e408429313950d11000000006a47304402207bd95ff9573b2fad92c100c78a1c8549c61838facb755d4dee16af283e235f7b02205c3e3c846f0b4e6796b67a67834508215dfd3850ce43771836b1eca24f85c739012103a31f8bd96cb475011f981eb956330d518540ecbfd31e026e76354072b22ace2ffdffffff01089f9a3b000000001976a9144a3b2b2ccbec7be08d3ad0d1a6ce832911a081b388ac00000000\", \"complete\": true}\n",
      "INFO:BitcoinRPC:Signed transaction hex: 020000000119cf0a3afd9db1a2fa65f68cc6ab7f8b6f40823672eff4e8e408429313950d11000000006a47304402207bd95ff9573b2fad92c100c78a1c8549c61838facb755d4dee16af283e235f7b02205c3e3c846f0b4e6796b67a67834508215dfd3850ce43771836b1eca24f85c739012103a31f8bd96cb475011f981eb956330d518540ecbfd31e026e76354072b22ace2ffdffffff01089f9a3b000000001976a9144a3b2b2ccbec7be08d3ad0d1a6ce832911a081b388ac00000000\n",
      "DEBUG:BitcoinRPC:-291-> sendrawtransaction [\"020000000119cf0a3afd9db1a2fa65f68cc6ab7f8b6f40823672eff4e8e408429313950d11000000006a47304402207bd95ff9573b2fad92c100c78a1c8549c61838facb755d4dee16af283e235f7b02205c3e3c846f0b4e6796b67a67834508215dfd3850ce43771836b1eca24f85c739012103a31f8bd96cb475011f981eb956330d518540ecbfd31e026e76354072b22ace2ffdffffff01089f9a3b000000001976a9144a3b2b2ccbec7be08d3ad0d1a6ce832911a081b388ac00000000\"]\n",
      "DEBUG:BitcoinRPC:<-291- \"fbcbca054c25b588c612bd9fac8f057bdd4268190c489f486d16c7ab3e22e8a5\"\n",
      "INFO:BitcoinRPC:Broadcasted transaction with TXID: fbcbca054c25b588c612bd9fac8f057bdd4268190c489f486d16c7ab3e22e8a5\n",
      "INFO:BitcoinRPC:Mining 6 blocks to confirm the transaction fbcbca054c25b588c612bd9fac8f057bdd4268190c489f486d16c7ab3e22e8a5...\n",
      "DEBUG:BitcoinRPC:-292-> generatetoaddress [6, \"mnHTBModaKGUoaKBesyHs3jmWNFk4YxHSq\"]\n",
      "DEBUG:BitcoinRPC:<-292- [\"0d584d6660b4a9602bcbee7a5268aa91c371a8100992c1b765f0e3030cb79281\", \"6ecfd7aa7802602fd94fd95ef460a83f7ced68ac7b4415fc95ecc38dd7adc270\", \"20738d52734688af159db89ab1e5e04d37ca5fcd1c4676914367575e8549a621\", \"1c90dc4a83bf90e20041c5378a261eb9606deef0d4f8a0f10ee774d81ef6c9fe\", \"0f33bb3a391d4ff560344fa92ecf3cdf265432c48660789ba54bdb51d49b53fa\", \"0313ab0ffce68d072674929812c051f6345e589c1b7fa4cb0019f90dabd9ed8e\"]\n",
      "INFO:BitcoinRPC:6 blocks mined.\n",
      "DEBUG:BitcoinRPC:-293-> getreceivedbyaddress [\"mnHTBModaKGUoaKBesyHs3jmWNFk4YxHSq\"]\n",
      "DEBUG:BitcoinRPC:<-293- 9.99989\n",
      "INFO:BitcoinRPC:Balance of Address C after transaction: 9.99989000 BTC\n",
      "DEBUG:BitcoinRPC:-294-> decoderawtransaction [\"0200000001f33cf2397b201369241181d84da95cedf6276a1bf4fe6b84f1c49cb5e26879540000000000fdffffff01f0a29a3b000000001976a914c6bd7ccf3bd0aed2d3ac8b7d62c675ea46dabad788ac00000000\", true]\n",
      "DEBUG:BitcoinRPC:<-294- {\"txid\": \"9299e18a4bd782ba227a5ce6a0ff8b2c52b800996f4dad33dc2950b05e44a306\", \"hash\": \"9299e18a4bd782ba227a5ce6a0ff8b2c52b800996f4dad33dc2950b05e44a306\", \"version\": 2, \"size\": 85, \"vsize\": 85, \"weight\": 340, \"locktime\": 0, \"vin\": [{\"txid\": \"547968e2b59cc4f1846bfef41b6a27f6ed5ca94dd88111246913207b39f23cf3\", \"vout\": 0, \"scriptSig\": {\"asm\": \"\", \"hex\": \"\"}, \"sequence\": 4294967293}], \"vout\": [{\"value\": 9.9999, \"n\": 0, \"scriptPubKey\": {\"asm\": \"OP_DUP OP_HASH160 c6bd7ccf3bd0aed2d3ac8b7d62c675ea46dabad7 OP_EQUALVERIFY OP_CHECKSIG\", \"desc\": \"addr(mydo5runmx2GH7kecVweU1jx6AE4cA8Txf)#mt6q8dfq\", \"hex\": \"76a914c6bd7ccf3bd0aed2d3ac8b7d62c675ea46dabad788ac\", \"address\": \"mydo5runmx2GH7kecVweU1jx6AE4cA8Txf\", \"type\": \"pubkeyhash\"}}]}\n",
      "DEBUG:BitcoinRPC:-295-> decoderawtransaction [\"020000000119cf0a3afd9db1a2fa65f68cc6ab7f8b6f40823672eff4e8e408429313950d110000000000fdffffff01089f9a3b000000001976a9144a3b2b2ccbec7be08d3ad0d1a6ce832911a081b388ac00000000\", true]\n",
      "DEBUG:BitcoinRPC:<-295- {\"txid\": \"0f49bba2a28b9656d7f830415f0d840f792b7a853fa368618adf733032caa0e8\", \"hash\": \"0f49bba2a28b9656d7f830415f0d840f792b7a853fa368618adf733032caa0e8\", \"version\": 2, \"size\": 85, \"vsize\": 85, \"weight\": 340, \"locktime\": 0, \"vin\": [{\"txid\": \"110d9513934208e4e8f4ef723682406f8b7fabc68cf665faa2b19dfd3a0acf19\", \"vout\": 0, \"scriptSig\": {\"asm\": \"\", \"hex\": \"\"}, \"sequence\": 4294967293}], \"vout\": [{\"value\": 9.99989, \"n\": 0, \"scriptPubKey\": {\"asm\": \"OP_DUP OP_HASH160 4a3b2b2ccbec7be08d3ad0d1a6ce832911a081b3 OP_EQUALVERIFY OP_CHECKSIG\", \"desc\": \"addr(mnHTBModaKGUoaKBesyHs3jmWNFk4YxHSq)#qk9pn5mx\", \"hex\": \"76a9144a3b2b2ccbec7be08d3ad0d1a6ce832911a081b388ac\", \"address\": \"mnHTBModaKGUoaKBesyHs3jmWNFk4YxHSq\", \"type\": \"pubkeyhash\"}}]}\n"
     ]
    },
    {
     "name": "stdout",
     "output_type": "stream",
     "text": [
      "(\"Decoded Transaction 1: {'txid': \"\n",
      " \"'9299e18a4bd782ba227a5ce6a0ff8b2c52b800996f4dad33dc2950b05e44a306', 'hash': \"\n",
      " \"'9299e18a4bd782ba227a5ce6a0ff8b2c52b800996f4dad33dc2950b05e44a306', \"\n",
      " \"'version': 2, 'size': 85, 'vsize': 85, 'weight': 340, 'locktime': 0, 'vin': \"\n",
      " \"[{'txid': \"\n",
      " \"'547968e2b59cc4f1846bfef41b6a27f6ed5ca94dd88111246913207b39f23cf3', 'vout': \"\n",
      " \"0, 'scriptSig': {'asm': '', 'hex': ''}, 'sequence': 4294967293}], 'vout': \"\n",
      " \"[{'value': Decimal('9.99990000'), 'n': 0, 'scriptPubKey': {'asm': 'OP_DUP \"\n",
      " 'OP_HASH160 c6bd7ccf3bd0aed2d3ac8b7d62c675ea46dabad7 OP_EQUALVERIFY '\n",
      " \"OP_CHECKSIG', 'desc': 'addr(mydo5runmx2GH7kecVweU1jx6AE4cA8Txf)#mt6q8dfq', \"\n",
      " \"'hex': '76a914c6bd7ccf3bd0aed2d3ac8b7d62c675ea46dabad788ac', 'address': \"\n",
      " \"'mydo5runmx2GH7kecVweU1jx6AE4cA8Txf', 'type': 'pubkeyhash'}}]}\")\n",
      "(\"Decoded Transaction 2: {'txid': \"\n",
      " \"'0f49bba2a28b9656d7f830415f0d840f792b7a853fa368618adf733032caa0e8', 'hash': \"\n",
      " \"'0f49bba2a28b9656d7f830415f0d840f792b7a853fa368618adf733032caa0e8', \"\n",
      " \"'version': 2, 'size': 85, 'vsize': 85, 'weight': 340, 'locktime': 0, 'vin': \"\n",
      " \"[{'txid': \"\n",
      " \"'110d9513934208e4e8f4ef723682406f8b7fabc68cf665faa2b19dfd3a0acf19', 'vout': \"\n",
      " \"0, 'scriptSig': {'asm': '', 'hex': ''}, 'sequence': 4294967293}], 'vout': \"\n",
      " \"[{'value': Decimal('9.99989000'), 'n': 0, 'scriptPubKey': {'asm': 'OP_DUP \"\n",
      " 'OP_HASH160 4a3b2b2ccbec7be08d3ad0d1a6ce832911a081b3 OP_EQUALVERIFY '\n",
      " \"OP_CHECKSIG', 'desc': 'addr(mnHTBModaKGUoaKBesyHs3jmWNFk4YxHSq)#qk9pn5mx', \"\n",
      " \"'hex': '76a9144a3b2b2ccbec7be08d3ad0d1a6ce832911a081b388ac', 'address': \"\n",
      " \"'mnHTBModaKGUoaKBesyHs3jmWNFk4YxHSq', 'type': 'pubkeyhash'}}]}\")\n"
     ]
    }
   ],
   "source": [
    "import logging\n",
    "from bitcoinrpc.authproxy import AuthServiceProxy, JSONRPCException\n",
    "from pprint import pprint\n",
    "# Setup logger\n",
    "logging.basicConfig(level=logging.DEBUG)\n",
    "logger = logging.getLogger(\"BitcoinRPC\")\n",
    "\n",
    "# Bitcoin Core RPC connection details\n",
    "rpc_user = \"your_rpc_user\"  # Replace with your RPC user\n",
    "rpc_pass = \"your_secure_password\"  # Replace with your RPC password\n",
    "rpc_host = \"127.0.0.1\"\n",
    "rpc_port = \"18443\"  # Assuming regtest is running on this port\n",
    "\n",
    "# Specify the wallet name to interact with\n",
    "wallet_name = \"mynewwallet\"  # Replace with your wallet name if needed\n",
    "\n",
    "# RPC client connection (this needs to be for the wallet we are using)\n",
    "rpc_client = AuthServiceProxy(f'http://{rpc_user}:{rpc_pass}@{rpc_host}:{rpc_port}/wallet/{wallet_name}', timeout=120)\n",
    "\n",
    "# Create new addresses for A, B, and C\n",
    "new_address_a = rpc_client.getnewaddress(\"\", \"legacy\")\n",
    "address_b = rpc_client.getnewaddress(\"\", \"legacy\")\n",
    "address_c = rpc_client.getnewaddress(\"\", \"legacy\")\n",
    "logger.info(f\"New Legacy address A generated: {new_address_a}\")\n",
    "logger.info(f\"New Legacy address B generated: {address_b}\")\n",
    "logger.info(f\"New Legacy address C generated: {address_c}\")\n",
    "\n",
    "# Send 10 BTC to Address A\n",
    "txid = rpc_client.sendtoaddress(new_address_a, 10.0)\n",
    "logger.info(f\"Sent 10.0 BTC to address A with TXID: {txid}\")\n",
    "\n",
    "# Function to mine blocks and confirm the transaction in Regtest\n",
    "def mine_blocks_to_confirm_transaction(txid, block_count=6):\n",
    "    try:\n",
    "        # Mine the required number of blocks to confirm the transaction\n",
    "        logger.info(f\"Mining {block_count} blocks to confirm the transaction {txid}...\")\n",
    "        \n",
    "        # This will mine 6 blocks and include the transaction in them\n",
    "        rpc_client.generatetoaddress(block_count, new_address_a)\n",
    "        logger.info(f\"{block_count} blocks mined.\")\n",
    "\n",
    "        # After mining, check the transaction confirmation count\n",
    "        tx_info = rpc_client.gettransaction(txid)\n",
    "        confirmations = tx_info[\"confirmations\"]\n",
    "        \n",
    "        if confirmations >= 6:\n",
    "            logger.info(f\"Transaction {txid} has reached 6 confirmations.\")\n",
    "        else:\n",
    "            logger.info(f\"Transaction {txid} has not reached 6 confirmations yet.\")\n",
    "    \n",
    "    except JSONRPCException as e:\n",
    "        logger.error(f\"Error mining blocks or checking transaction status: {e}\")\n",
    "\n",
    "# Call the function to mine 6 blocks and confirm the transaction\n",
    "mine_blocks_to_confirm_transaction(txid, block_count=6)\n",
    "\n",
    "# Check the balance of the wallet after the transaction\n",
    "def check_wallet_balance():\n",
    "    try:\n",
    "        # Get the current balance of the wallet\n",
    "        balance = rpc_client.getbalance()\n",
    "        logger.info(f\"Wallet balance after sending transaction: {balance} BTC\")\n",
    "        \n",
    "        # You can also check the balance of the specific address\n",
    "        address_balance = rpc_client.getreceivedbyaddress(new_address_a)\n",
    "        logger.info(f\"Balance of address {new_address_a}: {address_balance} BTC\")\n",
    "    \n",
    "    except JSONRPCException as e:\n",
    "        logger.error(f\"Error fetching wallet balance: {e}\")\n",
    "\n",
    "# Check wallet balance after the transaction\n",
    "check_wallet_balance()\n",
    "\n",
    "# Step 3: Get UTXOs from Address A\n",
    "try:\n",
    "    # Get unspent transaction outputs (UTXOs) for Address A\n",
    "    utxos = rpc_client.listunspent(0, 9999999, [new_address_a])\n",
    "    logger.info(f\"UTXOs for Address A: {utxos}\")\n",
    "    \n",
    "    if not utxos:\n",
    "        logger.error(\"No UTXOs found for Address A.\")\n",
    "        exit(1)\n",
    "    \n",
    "    # Select the first UTXO (this assumes a single UTXO, adjust if needed)\n",
    "    selected_utxo = utxos[0]\n",
    "    txid = selected_utxo[\"txid\"]\n",
    "    vout = selected_utxo[\"vout\"]\n",
    "    amount = selected_utxo[\"amount\"]\n",
    "    logger.info(f\"Selected UTXO: txid={txid}, vout={vout}, amount={amount} BTC\")\n",
    "\n",
    "except JSONRPCException as e:\n",
    "    logger.error(f\"Error retrieving UTXOs for Address A: {e}\")\n",
    "    exit(1)\n",
    "\n",
    "# Step 4: Create and sign the transaction\n",
    "try:\n",
    "    # Create the raw transaction input (spending UTXO from Address A)\n",
    "    inputs = [{\n",
    "        \"txid\": txid,\n",
    "        \"vout\": vout\n",
    "    }]\n",
    "    \n",
    "    # Create the raw transaction output (sending Bitcoin to Address B)\n",
    "    outputs = {\n",
    "        address_b: float(amount)-0.0001   # Send all funds minus a small fee (e.g., 0.0001 BTC)\n",
    "    }\n",
    "    \n",
    "    # Create the raw transaction\n",
    "    raw_tx = rpc_client.createrawtransaction(inputs, outputs)\n",
    "    logger.info(f\"Raw transaction created: {raw_tx}\")\n",
    "    \n",
    "    # Sign the transaction\n",
    "    signed_tx = rpc_client.signrawtransactionwithwallet(raw_tx)\n",
    "    logger.info(f\"Signed transaction hex: {signed_tx['hex']}\")\n",
    "    \n",
    "    # Extract signed transaction hex\n",
    "    signed_tx_hex = signed_tx[\"hex\"]\n",
    "\n",
    "except JSONRPCException as e:\n",
    "    logger.error(f\"Error creating or signing transaction: {e}\")\n",
    "    exit(1)\n",
    "\n",
    "# Step 5: Broadcast the signed transaction to the network\n",
    "try:\n",
    "    # Broadcast the signed transaction\n",
    "    txid_broadcast = rpc_client.sendrawtransaction(signed_tx_hex)\n",
    "    logger.info(f\"Broadcasted transaction with TXID: {txid_broadcast}\")\n",
    "\n",
    "except JSONRPCException as e:\n",
    "    logger.error(f\"Error broadcasting transaction: {e}\")\n",
    "    txid_broadcast = None  # If broadcasting fails, set txid_broadcast to None\n",
    "\n",
    "# Step 6: Mine blocks to confirm the transaction (on regtest)\n",
    "if txid_broadcast:\n",
    "    try:\n",
    "        logger.info(f\"Mining 6 blocks to confirm the transaction {txid_broadcast}...\")\n",
    "        rpc_client.generatetoaddress(6, address_b)  # Mine 6 blocks to confirm the transaction\n",
    "        logger.info(\"6 blocks mined.\")\n",
    "    except JSONRPCException as e:\n",
    "        logger.error(f\"Error mining blocks to confirm the transaction: {e}\")\n",
    "else:\n",
    "    logger.error(\"Transaction broadcasting failed. Mining cannot proceed.\")\n",
    "\n",
    "# Step 7: Check balances after transaction\n",
    "try:\n",
    "    # Check balance of Address B\n",
    "    balance_b = rpc_client.getreceivedbyaddress(address_b)\n",
    "    logger.info(f\"Balance of Address B after transaction: {balance_b} BTC\")\n",
    "\n",
    "except JSONRPCException as e:\n",
    "    logger.error(f\"Error checking balances: {e}\")\n",
    "\n",
    "# Step 8: Get UTXOs from Address B and create second transaction to Address C\n",
    "try:\n",
    "    # Get unspent transaction outputs (UTXOs) for Address B\n",
    "    utxos2 = rpc_client.listunspent(0, 9999999, [address_b])\n",
    "    logger.info(f\"UTXOs for Address B: {utxos2}\")\n",
    "    \n",
    "    if not utxos2:\n",
    "        logger.error(\"No UTXOs found for Address B.\")\n",
    "        exit(1)\n",
    "    \n",
    "    # Select the first UTXO (this assumes a single UTXO, adjust if needed)\n",
    "    selected_utxo2 = utxos2[0]\n",
    "    txid2 = selected_utxo2[\"txid\"]\n",
    "    vout2 = selected_utxo2[\"vout\"]\n",
    "    amount2 = selected_utxo2[\"amount\"]\n",
    "    logger.info(f\"Selected UTXO: txid={txid2}, vout={vout2}, amount={amount2} BTC\")\n",
    "\n",
    "except JSONRPCException as e:\n",
    "    logger.error(f\"Error retrieving UTXOs for Address B: {e}\")\n",
    "    exit(1)\n",
    "\n",
    "# Step 9: Create and sign the transaction for Address B to Address C\n",
    "try:\n",
    "    # Create the raw transaction input (spending UTXO from Address B)\n",
    "    inputs2 = [{\n",
    "        \"txid\": txid2,\n",
    "        \"vout\": vout2\n",
    "    }]\n",
    "    \n",
    "    # Create the raw transaction output (sending Bitcoin to Address C)\n",
    "    outputs2 = {\n",
    "        address_c: float(amount2)-0.00001   # Send all funds minus a small fee (e.g., 0.00001 BTC)\n",
    "    }\n",
    "    \n",
    "    # Create the raw transaction\n",
    "    raw_tx2 = rpc_client.createrawtransaction(inputs2, outputs2)\n",
    "    logger.info(f\"Raw transaction created: {raw_tx2}\")\n",
    "    \n",
    "    # Sign the transaction\n",
    "    signed_tx2 = rpc_client.signrawtransactionwithwallet(raw_tx2)\n",
    "    logger.info(f\"Signed transaction hex: {signed_tx2['hex']}\")\n",
    "    \n",
    "    # Extract signed transaction hex\n",
    "    signed_tx_hex2 = signed_tx2[\"hex\"]\n",
    "\n",
    "except JSONRPCException as e:\n",
    "    logger.error(f\"Error creating or signing transaction: {e}\")\n",
    "    exit(1)\n",
    "\n",
    "# Step 10: Broadcast the second signed transaction to the network\n",
    "try:\n",
    "    # Broadcast the signed transaction\n",
    "    txid_broadcast2 = rpc_client.sendrawtransaction(signed_tx_hex2)\n",
    "    logger.info(f\"Broadcasted transaction with TXID: {txid_broadcast2}\")\n",
    "\n",
    "except JSONRPCException as e:\n",
    "    logger.error(f\"Error broadcasting transaction: {e}\")\n",
    "    txid_broadcast2 = None  # If broadcasting fails, set txid_broadcast to None\n",
    "\n",
    "# Step 11: Mine blocks to confirm the second transaction (on regtest)\n",
    "if txid_broadcast2:\n",
    "    try:\n",
    "        logger.info(f\"Mining 6 blocks to confirm the transaction {txid_broadcast2}...\")\n",
    "        rpc_client.generatetoaddress(6, address_c)  # Mine 6 blocks to confirm the transaction\n",
    "        logger.info(\"6 blocks mined.\")\n",
    "    except JSONRPCException as e:\n",
    "        logger.error(f\"Error mining blocks to confirm the transaction: {e}\")\n",
    "else:\n",
    "    logger.error(\"Transaction broadcasting failed. Mining cannot proceed.\")\n",
    "\n",
    "# Step 12: Check balances after the second transaction\n",
    "try:\n",
    "    # Check balance of Address C\n",
    "    balance_c = rpc_client.getreceivedbyaddress(address_c)\n",
    "    logger.info(f\"Balance of Address C after transaction: {balance_c} BTC\")\n",
    "\n",
    "except JSONRPCException as e:\n",
    "    logger.error(f\"Error checking balances: {e}\")\n",
    "\n",
    "# Decode raw transactions for transparency\n",
    "decoded_tx = rpc_client.decoderawtransaction(raw_tx, True)\n",
    "decoded_tx2 = rpc_client.decoderawtransaction(raw_tx2, True)\n",
    "\n",
    "pprint((f\"Decoded Transaction 1: {decoded_tx}\"))\n",
    "pprint((f\"Decoded Transaction 2: {decoded_tx2}\"))\n"
   ]
  },
  {
   "cell_type": "code",
   "execution_count": null,
   "metadata": {},
   "outputs": [],
   "source": []
  },
  {
   "cell_type": "code",
   "execution_count": null,
   "metadata": {},
   "outputs": [],
   "source": []
  },
  {
   "cell_type": "code",
   "execution_count": null,
   "metadata": {},
   "outputs": [],
   "source": []
  }
 ],
 "metadata": {
  "kernelspec": {
   "display_name": "base",
   "language": "python",
   "name": "python3"
  },
  "language_info": {
   "codemirror_mode": {
    "name": "ipython",
    "version": 3
   },
   "file_extension": ".py",
   "mimetype": "text/x-python",
   "name": "python",
   "nbconvert_exporter": "python",
   "pygments_lexer": "ipython3",
   "version": "3.11.7"
  }
 },
 "nbformat": 4,
 "nbformat_minor": 2
}
