{
 "cells": [
  {
   "cell_type": "code",
   "execution_count": 4,
   "metadata": {},
   "outputs": [
    {
     "name": "stderr",
     "output_type": "stream",
     "text": [
      "DEBUG:BitcoinRPC:-44-> getnewaddress [\"\", \"p2sh-segwit\"]\n",
      "DEBUG:BitcoinRPC:<-44- \"2N2GvZt4rkLhxkV2xdc6WQG34MG35qk8sAw\"\n",
      "DEBUG:BitcoinRPC:-45-> getnewaddress [\"\", \"p2sh-segwit\"]\n",
      "DEBUG:BitcoinRPC:<-45- \"2Mw6uZLry9J4Sa449Dyu52KBVbBBo6jhMKi\"\n",
      "DEBUG:BitcoinRPC:-46-> getnewaddress [\"\", \"p2sh-segwit\"]\n",
      "DEBUG:BitcoinRPC:<-46- \"2NFWdzAc648YwsiFWBeV4ejRNKQcZFeBHbv\"\n",
      "INFO:BitcoinRPC:New Legacy address A generated: 2N2GvZt4rkLhxkV2xdc6WQG34MG35qk8sAw\n",
      "INFO:BitcoinRPC:New Legacy address B generated: 2Mw6uZLry9J4Sa449Dyu52KBVbBBo6jhMKi\n",
      "INFO:BitcoinRPC:New Legacy address C generated: 2NFWdzAc648YwsiFWBeV4ejRNKQcZFeBHbv\n",
      "DEBUG:BitcoinRPC:-47-> sendtoaddress [\"2N2GvZt4rkLhxkV2xdc6WQG34MG35qk8sAw\", 10.0]\n",
      "DEBUG:BitcoinRPC:<-47- \"f6b026c486d49bd40f127e0ac23f399e74c884c2046fefd9e9c26af112998fc2\"\n",
      "INFO:BitcoinRPC:Sent 10.0 BTC to address A with TXID: f6b026c486d49bd40f127e0ac23f399e74c884c2046fefd9e9c26af112998fc2\n",
      "INFO:BitcoinRPC:Mining 6 blocks to confirm the transaction f6b026c486d49bd40f127e0ac23f399e74c884c2046fefd9e9c26af112998fc2...\n",
      "DEBUG:BitcoinRPC:-48-> generatetoaddress [6, \"2N2GvZt4rkLhxkV2xdc6WQG34MG35qk8sAw\"]\n",
      "DEBUG:BitcoinRPC:<-48- [\"42ff866b5a71f36381c7619a80e9e7fa60957eec8f5e9223c0e4527f053eb494\", \"050e643c2a9f2a243082b5de42cfd5491928ee946d5bebdaa3d1e68539d84e17\", \"05509133e6600432b62202706215a1b40d0e4b11f6c78ae56f78ad9017b4a618\", \"33372e63fa1bdf048c45d010735505171e781168e6ac4b8be8f6e18293cfeae1\", \"6e321147df5a21d81554c1e97ce0171374d4d2f4a1b962a85229f5568c908aca\", \"2d4e29a10e146ca91cf9e37628a4697a70d9f64a8d31876d4bba14dd87d8cefa\"]\n",
      "INFO:BitcoinRPC:6 blocks mined.\n",
      "DEBUG:BitcoinRPC:-49-> gettransaction [\"f6b026c486d49bd40f127e0ac23f399e74c884c2046fefd9e9c26af112998fc2\"]\n",
      "DEBUG:BitcoinRPC:<-49- {\"amount\": 0.0, \"fee\": -8.072e-05, \"confirmations\": 6, \"blockhash\": \"42ff866b5a71f36381c7619a80e9e7fa60957eec8f5e9223c0e4527f053eb494\", \"blockheight\": 3115, \"blockindex\": 1, \"blocktime\": 1742750048, \"txid\": \"f6b026c486d49bd40f127e0ac23f399e74c884c2046fefd9e9c26af112998fc2\", \"wtxid\": \"f6b026c486d49bd40f127e0ac23f399e74c884c2046fefd9e9c26af112998fc2\", \"walletconflicts\": [], \"mempoolconflicts\": [], \"time\": 1742750048, \"timereceived\": 1742750048, \"bip125-replaceable\": \"no\", \"details\": [{\"address\": \"2N2GvZt4rkLhxkV2xdc6WQG34MG35qk8sAw\", \"category\": \"send\", \"amount\": -10.0, \"label\": \"\", \"vout\": 0, \"fee\": -8.072e-05, \"abandoned\": false}, {\"address\": \"2N2GvZt4rkLhxkV2xdc6WQG34MG35qk8sAw\", \"parent_descs\": [\"sh(wpkh(tpubD6NzVbkrYhZ4Y4hhKhjJxbYYg3XE427w6hJARdozBqk8PZvUjZmEYUDDNDCVsHi4DmAwYP1Q5sibqynBEWaLDqiTcsjkc2rnijLcifYoT4k/49h/1h/0h/0/*))#2tpx73y5\"], \"category\": \"receive\", \"amount\": 10.0, \"label\": \"\", \"vout\": 0, \"abandoned\": false}], \"hex\": \"0200000005e7ada898a187dee5264b986863b726cee034f689f12ccbcd2ee14adf4c9a05ba000000006a4730440220607679b6e2a732e86d3b04155986b5da6d922086383376d0fef5441e9c8bddb40220674465390706559e4d6a13aaa54fa9145797ef22d7c5013c160d498c8fd2b2200121028c6cbf35f3a9a60fe053f53c71077897af2aaa65b36d380d38ae83df3d150467fdffffff50578e62b9142c1d41bd0440668bd524530c2a1b0016d965d8c6042e15a2ef18000000006a473044022071b3e684ccdf8e46460cfc5d9e1c940509c9338930500131f591218ac4290de302207afb78541d4f3f7de6fff86cbfc0fe56a38c558209cb75af1bc7d498342aba020121028c6cbf35f3a9a60fe053f53c71077897af2aaa65b36d380d38ae83df3d150467fdffffffe2ee2826b064fe6b22ee3b902f90ab6f7a0600440d0f8d94ad71eb17feb87329000000006a47304402205f9f57a5b1de5506d072e1e57b240832c84daa44abcfdfd23f8bd26631274aa302201d232098d4379b7b24c70129964dba0eafe53528d77245d51b45ca7cdcba47500121028c6cbf35f3a9a60fe053f53c71077897af2aaa65b36d380d38ae83df3d150467fdffffff34ac406b033f66b49566ee29c62f5f3dbd7c1efe44f65c1025eb6607457cb2a2000000006a47304402204c8d0e2912b2454f65992320712ae50293bb6f37c5be1636dde44aaede3345f4022029c889414033ccadeff660e1b00bf321516d944c2e60a806c1f3f3c353bb82df0121026594432ebddde409c3701cdcfc6f986b9587f3e9f8bd793495fcd37f2792f083fdfffffffec319400567d7dc8f699c0862676e4e2f0e65dbaa58d65484067bb7cad87247000000006a47304402201b5604608f09803afbb9e45ce7945996c101255c95e7491b7945a4c067b059c602201a9cef55d29d0f1792ced928a86dd939adbf8fc2f3272ee295b89f1b385984a00121028c6cbf35f3a9a60fe053f53c71077897af2aaa65b36d380d38ae83df3d150467fdffffff0100ca9a3b0000000017a914630b6c004dc52ffc0fe7bcf8f983bd3917205660872a0c0000\", \"lastprocessedblock\": {\"hash\": \"2d4e29a10e146ca91cf9e37628a4697a70d9f64a8d31876d4bba14dd87d8cefa\", \"height\": 3120}}\n",
      "INFO:BitcoinRPC:Transaction f6b026c486d49bd40f127e0ac23f399e74c884c2046fefd9e9c26af112998fc2 has reached 6 confirmations.\n",
      "DEBUG:BitcoinRPC:-50-> getbalance []\n",
      "DEBUG:BitcoinRPC:<-50- 14810.65657711\n",
      "INFO:BitcoinRPC:Wallet balance after sending transaction: 14810.65657711 BTC\n",
      "DEBUG:BitcoinRPC:-51-> getreceivedbyaddress [\"2N2GvZt4rkLhxkV2xdc6WQG34MG35qk8sAw\"]\n",
      "DEBUG:BitcoinRPC:<-51- 10.0\n",
      "INFO:BitcoinRPC:Balance of address 2N2GvZt4rkLhxkV2xdc6WQG34MG35qk8sAw: 10.00000000 BTC\n",
      "DEBUG:BitcoinRPC:-52-> listunspent [0, 9999999, [\"2N2GvZt4rkLhxkV2xdc6WQG34MG35qk8sAw\"]]\n",
      "DEBUG:BitcoinRPC:<-52- [{\"txid\": \"f6b026c486d49bd40f127e0ac23f399e74c884c2046fefd9e9c26af112998fc2\", \"vout\": 0, \"address\": \"2N2GvZt4rkLhxkV2xdc6WQG34MG35qk8sAw\", \"label\": \"\", \"redeemScript\": \"00143ff52e474c64b9714af787d04b322017ee53f1d9\", \"scriptPubKey\": \"a914630b6c004dc52ffc0fe7bcf8f983bd391720566087\", \"amount\": 10.0, \"confirmations\": 6, \"spendable\": true, \"solvable\": true, \"desc\": \"sh(wpkh([6ec7dc00/49h/1h/0h/0/6]0343dc53ae7c8cbd1fe64bd5f2c13836d468d568332cc0015b67c51993ac402196))#mv5zcm5k\", \"parent_descs\": [\"sh(wpkh(tpubD6NzVbkrYhZ4Y4hhKhjJxbYYg3XE427w6hJARdozBqk8PZvUjZmEYUDDNDCVsHi4DmAwYP1Q5sibqynBEWaLDqiTcsjkc2rnijLcifYoT4k/49h/1h/0h/0/*))#2tpx73y5\"], \"safe\": true}]\n",
      "INFO:BitcoinRPC:UTXOs for Address A: [{'txid': 'f6b026c486d49bd40f127e0ac23f399e74c884c2046fefd9e9c26af112998fc2', 'vout': 0, 'address': '2N2GvZt4rkLhxkV2xdc6WQG34MG35qk8sAw', 'label': '', 'redeemScript': '00143ff52e474c64b9714af787d04b322017ee53f1d9', 'scriptPubKey': 'a914630b6c004dc52ffc0fe7bcf8f983bd391720566087', 'amount': Decimal('10.00000000'), 'confirmations': 6, 'spendable': True, 'solvable': True, 'desc': 'sh(wpkh([6ec7dc00/49h/1h/0h/0/6]0343dc53ae7c8cbd1fe64bd5f2c13836d468d568332cc0015b67c51993ac402196))#mv5zcm5k', 'parent_descs': ['sh(wpkh(tpubD6NzVbkrYhZ4Y4hhKhjJxbYYg3XE427w6hJARdozBqk8PZvUjZmEYUDDNDCVsHi4DmAwYP1Q5sibqynBEWaLDqiTcsjkc2rnijLcifYoT4k/49h/1h/0h/0/*))#2tpx73y5'], 'safe': True}]\n",
      "INFO:BitcoinRPC:Selected UTXO: txid=f6b026c486d49bd40f127e0ac23f399e74c884c2046fefd9e9c26af112998fc2, vout=0, amount=10.00000000 BTC\n",
      "DEBUG:BitcoinRPC:-53-> createrawtransaction [[{\"txid\": \"f6b026c486d49bd40f127e0ac23f399e74c884c2046fefd9e9c26af112998fc2\", \"vout\": 0}], {\"2Mw6uZLry9J4Sa449Dyu52KBVbBBo6jhMKi\": 9.9999}]\n",
      "DEBUG:BitcoinRPC:<-53- \"0200000001c28f9912f16ac2e9d9ef6f04c284c8749e393fc20a7e120fd49bd486c426b0f60000000000fdffffff01f0a29a3b0000000017a9142a4dca749770d1ba000b08d556d95b21b81d8cc18700000000\"\n",
      "INFO:BitcoinRPC:Raw transaction created: 0200000001c28f9912f16ac2e9d9ef6f04c284c8749e393fc20a7e120fd49bd486c426b0f60000000000fdffffff01f0a29a3b0000000017a9142a4dca749770d1ba000b08d556d95b21b81d8cc18700000000\n",
      "DEBUG:BitcoinRPC:-54-> signrawtransactionwithwallet [\"0200000001c28f9912f16ac2e9d9ef6f04c284c8749e393fc20a7e120fd49bd486c426b0f60000000000fdffffff01f0a29a3b0000000017a9142a4dca749770d1ba000b08d556d95b21b81d8cc18700000000\"]\n",
      "DEBUG:BitcoinRPC:<-54- {\"hex\": \"02000000000101c28f9912f16ac2e9d9ef6f04c284c8749e393fc20a7e120fd49bd486c426b0f600000000171600143ff52e474c64b9714af787d04b322017ee53f1d9fdffffff01f0a29a3b0000000017a9142a4dca749770d1ba000b08d556d95b21b81d8cc187024730440220304d81c8c9b83f45e1f9d9848c92a67ebb7e6dcf677db68b1e8ec0211fb386a30220735beac63a3685c39b2591ef26dd0cfab2023e94aff04ec11dcf7c47baee876801210343dc53ae7c8cbd1fe64bd5f2c13836d468d568332cc0015b67c51993ac40219600000000\", \"complete\": true}\n",
      "INFO:BitcoinRPC:Signed transaction hex: 02000000000101c28f9912f16ac2e9d9ef6f04c284c8749e393fc20a7e120fd49bd486c426b0f600000000171600143ff52e474c64b9714af787d04b322017ee53f1d9fdffffff01f0a29a3b0000000017a9142a4dca749770d1ba000b08d556d95b21b81d8cc187024730440220304d81c8c9b83f45e1f9d9848c92a67ebb7e6dcf677db68b1e8ec0211fb386a30220735beac63a3685c39b2591ef26dd0cfab2023e94aff04ec11dcf7c47baee876801210343dc53ae7c8cbd1fe64bd5f2c13836d468d568332cc0015b67c51993ac40219600000000\n",
      "DEBUG:BitcoinRPC:-55-> sendrawtransaction [\"02000000000101c28f9912f16ac2e9d9ef6f04c284c8749e393fc20a7e120fd49bd486c426b0f600000000171600143ff52e474c64b9714af787d04b322017ee53f1d9fdffffff01f0a29a3b0000000017a9142a4dca749770d1ba000b08d556d95b21b81d8cc187024730440220304d81c8c9b83f45e1f9d9848c92a67ebb7e6dcf677db68b1e8ec0211fb386a30220735beac63a3685c39b2591ef26dd0cfab2023e94aff04ec11dcf7c47baee876801210343dc53ae7c8cbd1fe64bd5f2c13836d468d568332cc0015b67c51993ac40219600000000\"]\n",
      "DEBUG:BitcoinRPC:<-55- \"b16d101c89b11e4adc03e3ca43748f3b2dd142721dfe06d6589e021a630824ed\"\n",
      "INFO:BitcoinRPC:Broadcasted transaction with TXID: b16d101c89b11e4adc03e3ca43748f3b2dd142721dfe06d6589e021a630824ed\n",
      "INFO:BitcoinRPC:Mining 6 blocks to confirm the transaction b16d101c89b11e4adc03e3ca43748f3b2dd142721dfe06d6589e021a630824ed...\n",
      "DEBUG:BitcoinRPC:-56-> generatetoaddress [6, \"2Mw6uZLry9J4Sa449Dyu52KBVbBBo6jhMKi\"]\n",
      "DEBUG:BitcoinRPC:<-56- [\"02e9c1657422969865f9fa736c8fa0fc51c3e659e95a23f7974fb6430cfe5232\", \"620ec43c8456def9a68beecf50eefbffcf9379cdaff8bc23b0b7ee330751fbb5\", \"76c4b6444864e33ca99b4bc534804a068bb0e9539dce932833fb432bb86c44a8\", \"7cf647dc735951858228fb029aa0c0afd971f804196fdbabc7adc8a877b61345\", \"32118f0cbadb56330345a48ae899181d9d691abef8497a2ca75b9436e8ab3a95\", \"11485bf321451e766435a22cc3002c086583d78e583c1fa851d22a457dceda37\"]\n",
      "INFO:BitcoinRPC:6 blocks mined.\n",
      "DEBUG:BitcoinRPC:-57-> getreceivedbyaddress [\"2Mw6uZLry9J4Sa449Dyu52KBVbBBo6jhMKi\"]\n",
      "DEBUG:BitcoinRPC:<-57- 9.9999\n",
      "INFO:BitcoinRPC:Balance of Address B after transaction: 9.99990000 BTC\n",
      "DEBUG:BitcoinRPC:-58-> listunspent [0, 9999999, [\"2Mw6uZLry9J4Sa449Dyu52KBVbBBo6jhMKi\"]]\n",
      "DEBUG:BitcoinRPC:<-58- [{\"txid\": \"b16d101c89b11e4adc03e3ca43748f3b2dd142721dfe06d6589e021a630824ed\", \"vout\": 0, \"address\": \"2Mw6uZLry9J4Sa449Dyu52KBVbBBo6jhMKi\", \"label\": \"\", \"redeemScript\": \"001432295efc585844abc09be52f481a54e24f7a3095\", \"scriptPubKey\": \"a9142a4dca749770d1ba000b08d556d95b21b81d8cc187\", \"amount\": 9.9999, \"confirmations\": 6, \"spendable\": true, \"solvable\": true, \"desc\": \"sh(wpkh([6ec7dc00/49h/1h/0h/0/7]02640448b2049a441fec56de6bee6a83b3b7952637b5df2a9e36003d14027a95f9))#6kgy6n3g\", \"parent_descs\": [\"sh(wpkh(tpubD6NzVbkrYhZ4Y4hhKhjJxbYYg3XE427w6hJARdozBqk8PZvUjZmEYUDDNDCVsHi4DmAwYP1Q5sibqynBEWaLDqiTcsjkc2rnijLcifYoT4k/49h/1h/0h/0/*))#2tpx73y5\"], \"safe\": true}]\n",
      "INFO:BitcoinRPC:UTXOs for Address B: [{'txid': 'b16d101c89b11e4adc03e3ca43748f3b2dd142721dfe06d6589e021a630824ed', 'vout': 0, 'address': '2Mw6uZLry9J4Sa449Dyu52KBVbBBo6jhMKi', 'label': '', 'redeemScript': '001432295efc585844abc09be52f481a54e24f7a3095', 'scriptPubKey': 'a9142a4dca749770d1ba000b08d556d95b21b81d8cc187', 'amount': Decimal('9.99990000'), 'confirmations': 6, 'spendable': True, 'solvable': True, 'desc': 'sh(wpkh([6ec7dc00/49h/1h/0h/0/7]02640448b2049a441fec56de6bee6a83b3b7952637b5df2a9e36003d14027a95f9))#6kgy6n3g', 'parent_descs': ['sh(wpkh(tpubD6NzVbkrYhZ4Y4hhKhjJxbYYg3XE427w6hJARdozBqk8PZvUjZmEYUDDNDCVsHi4DmAwYP1Q5sibqynBEWaLDqiTcsjkc2rnijLcifYoT4k/49h/1h/0h/0/*))#2tpx73y5'], 'safe': True}]\n",
      "INFO:BitcoinRPC:Selected UTXO: txid=b16d101c89b11e4adc03e3ca43748f3b2dd142721dfe06d6589e021a630824ed, vout=0, amount=9.99990000 BTC\n",
      "DEBUG:BitcoinRPC:-59-> createrawtransaction [[{\"txid\": \"b16d101c89b11e4adc03e3ca43748f3b2dd142721dfe06d6589e021a630824ed\", \"vout\": 0}], {\"2NFWdzAc648YwsiFWBeV4ejRNKQcZFeBHbv\": 9.99989}]\n",
      "DEBUG:BitcoinRPC:<-59- \"0200000001ed2408631a029e58d606fe1d7242d12d3b8f7443cae303dc4a1eb1891c106db10000000000fdffffff01089f9a3b0000000017a914f43d0a07025a6fb46c631ac7216fac789aa5636b8700000000\"\n",
      "INFO:BitcoinRPC:Raw transaction created: 0200000001ed2408631a029e58d606fe1d7242d12d3b8f7443cae303dc4a1eb1891c106db10000000000fdffffff01089f9a3b0000000017a914f43d0a07025a6fb46c631ac7216fac789aa5636b8700000000\n",
      "DEBUG:BitcoinRPC:-60-> signrawtransactionwithwallet [\"0200000001ed2408631a029e58d606fe1d7242d12d3b8f7443cae303dc4a1eb1891c106db10000000000fdffffff01089f9a3b0000000017a914f43d0a07025a6fb46c631ac7216fac789aa5636b8700000000\"]\n",
      "DEBUG:BitcoinRPC:<-60- {\"hex\": \"02000000000101ed2408631a029e58d606fe1d7242d12d3b8f7443cae303dc4a1eb1891c106db1000000001716001432295efc585844abc09be52f481a54e24f7a3095fdffffff01089f9a3b0000000017a914f43d0a07025a6fb46c631ac7216fac789aa5636b8702473044022065d207327c2f8c491db2bcbbe2818509c359dfb6098502eef855c8936b309f030220422859019c07e3dd3c0e7c477ba71a1879cfdb494fccde7f08d807abd30af4fc012102640448b2049a441fec56de6bee6a83b3b7952637b5df2a9e36003d14027a95f900000000\", \"complete\": true}\n",
      "INFO:BitcoinRPC:Signed transaction hex: 02000000000101ed2408631a029e58d606fe1d7242d12d3b8f7443cae303dc4a1eb1891c106db1000000001716001432295efc585844abc09be52f481a54e24f7a3095fdffffff01089f9a3b0000000017a914f43d0a07025a6fb46c631ac7216fac789aa5636b8702473044022065d207327c2f8c491db2bcbbe2818509c359dfb6098502eef855c8936b309f030220422859019c07e3dd3c0e7c477ba71a1879cfdb494fccde7f08d807abd30af4fc012102640448b2049a441fec56de6bee6a83b3b7952637b5df2a9e36003d14027a95f900000000\n",
      "DEBUG:BitcoinRPC:-61-> sendrawtransaction [\"02000000000101ed2408631a029e58d606fe1d7242d12d3b8f7443cae303dc4a1eb1891c106db1000000001716001432295efc585844abc09be52f481a54e24f7a3095fdffffff01089f9a3b0000000017a914f43d0a07025a6fb46c631ac7216fac789aa5636b8702473044022065d207327c2f8c491db2bcbbe2818509c359dfb6098502eef855c8936b309f030220422859019c07e3dd3c0e7c477ba71a1879cfdb494fccde7f08d807abd30af4fc012102640448b2049a441fec56de6bee6a83b3b7952637b5df2a9e36003d14027a95f900000000\"]\n",
      "DEBUG:BitcoinRPC:<-61- \"f6b01ff9483d60596e3efd0649cdf35fd18f493655cf64c52b56332eab4fc7c7\"\n",
      "INFO:BitcoinRPC:Broadcasted transaction with TXID: f6b01ff9483d60596e3efd0649cdf35fd18f493655cf64c52b56332eab4fc7c7\n",
      "INFO:BitcoinRPC:Mining 6 blocks to confirm the transaction f6b01ff9483d60596e3efd0649cdf35fd18f493655cf64c52b56332eab4fc7c7...\n",
      "DEBUG:BitcoinRPC:-62-> generatetoaddress [6, \"2NFWdzAc648YwsiFWBeV4ejRNKQcZFeBHbv\"]\n",
      "DEBUG:BitcoinRPC:<-62- [\"77cb5e03ab9fb0560ae2a36b1b6b42be6bf84bf2282f4935eb0b9125b4876adb\", \"79224df2e43f7db6647fca7339f4934d3fbaf07b6c6eaf757e62269f8d5ec399\", \"33fe5137d9fd03638d10822e633bbbe262a901889be7f952e18393b1cf70e8d3\", \"06810c04eaba4745dee8164bba0f1d0bf78e78dd591014426fa430df2dfb8f33\", \"539c29a02e808cb4e234cad053ad63ce51f4a546733a6a4c66370e9948bda4d3\", \"5bb2d3717b88b9170062bfb289c6f6aa233b0ea3057d5d549a566501c356d892\"]\n",
      "INFO:BitcoinRPC:6 blocks mined.\n",
      "DEBUG:BitcoinRPC:-63-> getreceivedbyaddress [\"2NFWdzAc648YwsiFWBeV4ejRNKQcZFeBHbv\"]\n",
      "DEBUG:BitcoinRPC:<-63- 9.99989\n",
      "INFO:BitcoinRPC:Balance of Address C after transaction: 9.99989000 BTC\n",
      "DEBUG:BitcoinRPC:-64-> decoderawtransaction [\"0200000001c28f9912f16ac2e9d9ef6f04c284c8749e393fc20a7e120fd49bd486c426b0f60000000000fdffffff01f0a29a3b0000000017a9142a4dca749770d1ba000b08d556d95b21b81d8cc18700000000\", true]\n",
      "DEBUG:BitcoinRPC:<-64- {\"txid\": \"0b1c086961523e19fffb057e27fd4fcdf3838a2f9373c59e4fe75d188cfe7dcf\", \"hash\": \"0b1c086961523e19fffb057e27fd4fcdf3838a2f9373c59e4fe75d188cfe7dcf\", \"version\": 2, \"size\": 83, \"vsize\": 83, \"weight\": 332, \"locktime\": 0, \"vin\": [{\"txid\": \"f6b026c486d49bd40f127e0ac23f399e74c884c2046fefd9e9c26af112998fc2\", \"vout\": 0, \"scriptSig\": {\"asm\": \"\", \"hex\": \"\"}, \"sequence\": 4294967293}], \"vout\": [{\"value\": 9.9999, \"n\": 0, \"scriptPubKey\": {\"asm\": \"OP_HASH160 2a4dca749770d1ba000b08d556d95b21b81d8cc1 OP_EQUAL\", \"desc\": \"addr(2Mw6uZLry9J4Sa449Dyu52KBVbBBo6jhMKi)#sevtwvxk\", \"hex\": \"a9142a4dca749770d1ba000b08d556d95b21b81d8cc187\", \"address\": \"2Mw6uZLry9J4Sa449Dyu52KBVbBBo6jhMKi\", \"type\": \"scripthash\"}}]}\n",
      "DEBUG:BitcoinRPC:-65-> decoderawtransaction [\"0200000001ed2408631a029e58d606fe1d7242d12d3b8f7443cae303dc4a1eb1891c106db10000000000fdffffff01089f9a3b0000000017a914f43d0a07025a6fb46c631ac7216fac789aa5636b8700000000\", true]\n",
      "DEBUG:BitcoinRPC:<-65- {\"txid\": \"21f09d9280722891eac884c946622c0927b2834b9a73c1a86a689bee1638cb53\", \"hash\": \"21f09d9280722891eac884c946622c0927b2834b9a73c1a86a689bee1638cb53\", \"version\": 2, \"size\": 83, \"vsize\": 83, \"weight\": 332, \"locktime\": 0, \"vin\": [{\"txid\": \"b16d101c89b11e4adc03e3ca43748f3b2dd142721dfe06d6589e021a630824ed\", \"vout\": 0, \"scriptSig\": {\"asm\": \"\", \"hex\": \"\"}, \"sequence\": 4294967293}], \"vout\": [{\"value\": 9.99989, \"n\": 0, \"scriptPubKey\": {\"asm\": \"OP_HASH160 f43d0a07025a6fb46c631ac7216fac789aa5636b OP_EQUAL\", \"desc\": \"addr(2NFWdzAc648YwsiFWBeV4ejRNKQcZFeBHbv)#px2cskum\", \"hex\": \"a914f43d0a07025a6fb46c631ac7216fac789aa5636b87\", \"address\": \"2NFWdzAc648YwsiFWBeV4ejRNKQcZFeBHbv\", \"type\": \"scripthash\"}}]}\n"
     ]
    },
    {
     "name": "stdout",
     "output_type": "stream",
     "text": [
      "(\"Decoded Transaction 1: {'txid': \"\n",
      " \"'0b1c086961523e19fffb057e27fd4fcdf3838a2f9373c59e4fe75d188cfe7dcf', 'hash': \"\n",
      " \"'0b1c086961523e19fffb057e27fd4fcdf3838a2f9373c59e4fe75d188cfe7dcf', \"\n",
      " \"'version': 2, 'size': 83, 'vsize': 83, 'weight': 332, 'locktime': 0, 'vin': \"\n",
      " \"[{'txid': \"\n",
      " \"'f6b026c486d49bd40f127e0ac23f399e74c884c2046fefd9e9c26af112998fc2', 'vout': \"\n",
      " \"0, 'scriptSig': {'asm': '', 'hex': ''}, 'sequence': 4294967293}], 'vout': \"\n",
      " \"[{'value': Decimal('9.99990000'), 'n': 0, 'scriptPubKey': {'asm': \"\n",
      " \"'OP_HASH160 2a4dca749770d1ba000b08d556d95b21b81d8cc1 OP_EQUAL', 'desc': \"\n",
      " \"'addr(2Mw6uZLry9J4Sa449Dyu52KBVbBBo6jhMKi)#sevtwvxk', 'hex': \"\n",
      " \"'a9142a4dca749770d1ba000b08d556d95b21b81d8cc187', 'address': \"\n",
      " \"'2Mw6uZLry9J4Sa449Dyu52KBVbBBo6jhMKi', 'type': 'scripthash'}}]}\")\n",
      "(\"Decoded Transaction 2: {'txid': \"\n",
      " \"'21f09d9280722891eac884c946622c0927b2834b9a73c1a86a689bee1638cb53', 'hash': \"\n",
      " \"'21f09d9280722891eac884c946622c0927b2834b9a73c1a86a689bee1638cb53', \"\n",
      " \"'version': 2, 'size': 83, 'vsize': 83, 'weight': 332, 'locktime': 0, 'vin': \"\n",
      " \"[{'txid': \"\n",
      " \"'b16d101c89b11e4adc03e3ca43748f3b2dd142721dfe06d6589e021a630824ed', 'vout': \"\n",
      " \"0, 'scriptSig': {'asm': '', 'hex': ''}, 'sequence': 4294967293}], 'vout': \"\n",
      " \"[{'value': Decimal('9.99989000'), 'n': 0, 'scriptPubKey': {'asm': \"\n",
      " \"'OP_HASH160 f43d0a07025a6fb46c631ac7216fac789aa5636b OP_EQUAL', 'desc': \"\n",
      " \"'addr(2NFWdzAc648YwsiFWBeV4ejRNKQcZFeBHbv)#px2cskum', 'hex': \"\n",
      " \"'a914f43d0a07025a6fb46c631ac7216fac789aa5636b87', 'address': \"\n",
      " \"'2NFWdzAc648YwsiFWBeV4ejRNKQcZFeBHbv', 'type': 'scripthash'}}]}\")\n"
     ]
    }
   ],
   "source": [
    "import logging\n",
    "from bitcoinrpc.authproxy import AuthServiceProxy, JSONRPCException\n",
    "from pprint import pprint\n",
    "\n",
    "\n",
    "# Setup logger\n",
    "logging.basicConfig(level=logging.DEBUG)\n",
    "logger = logging.getLogger(\"BitcoinRPC\")\n",
    "\n",
    "# Bitcoin Core RPC connection details\n",
    "rpc_user = \"your_rpc_user\"  # Replace with your RPC user\n",
    "rpc_pass = \"your_secure_password\"  # Replace with your RPC password\n",
    "rpc_host = \"127.0.0.1\"\n",
    "rpc_port = \"18443\"  # Assuming regtest is running on this port\n",
    "\n",
    "# Specify the wallet name to interact with\n",
    "wallet_name = \"mynewwallet\"  # Replace with your wallet name if needed\n",
    "\n",
    "# RPC client connection (this needs to be for the wallet we are using)\n",
    "rpc_client = AuthServiceProxy(f'http://{rpc_user}:{rpc_pass}@{rpc_host}:{rpc_port}/wallet/{wallet_name}', timeout=120)\n",
    "\n",
    "# Create new addresses for A, B, and C\n",
    "new_address_a = rpc_client.getnewaddress(\"\", \"p2sh-segwit\")\n",
    "address_b = rpc_client.getnewaddress(\"\", \"p2sh-segwit\")\n",
    "address_c = rpc_client.getnewaddress(\"\", \"p2sh-segwit\")\n",
    "logger.info(f\"New Legacy address A generated: {new_address_a}\")\n",
    "logger.info(f\"New Legacy address B generated: {address_b}\")\n",
    "logger.info(f\"New Legacy address C generated: {address_c}\")\n",
    "\n",
    "# Send 10 BTC to Address A\n",
    "txid = rpc_client.sendtoaddress(new_address_a, 10.0)\n",
    "logger.info(f\"Sent 10.0 BTC to address A with TXID: {txid}\")\n",
    "\n",
    "# Function to mine blocks and confirm the transaction in Regtest\n",
    "def mine_blocks_to_confirm_transaction(txid, block_count=6):\n",
    "    try:\n",
    "        # Mine the required number of blocks to confirm the transaction\n",
    "        logger.info(f\"Mining {block_count} blocks to confirm the transaction {txid}...\")\n",
    "        \n",
    "        # This will mine 6 blocks and include the transaction in them\n",
    "        rpc_client.generatetoaddress(block_count, new_address_a)\n",
    "        logger.info(f\"{block_count} blocks mined.\")\n",
    "\n",
    "        # After mining, check the transaction confirmation count\n",
    "        tx_info = rpc_client.gettransaction(txid)\n",
    "        confirmations = tx_info[\"confirmations\"]\n",
    "        \n",
    "        if confirmations >= 6:\n",
    "            logger.info(f\"Transaction {txid} has reached 6 confirmations.\")\n",
    "        else:\n",
    "            logger.info(f\"Transaction {txid} has not reached 6 confirmations yet.\")\n",
    "    \n",
    "    except JSONRPCException as e:\n",
    "        logger.error(f\"Error mining blocks or checking transaction status: {e}\")\n",
    "\n",
    "# Call the function to mine 6 blocks and confirm the transaction\n",
    "mine_blocks_to_confirm_transaction(txid, block_count=6)\n",
    "\n",
    "# Check the balance of the wallet after the transaction\n",
    "def check_wallet_balance():\n",
    "    try:\n",
    "        # Get the current balance of the wallet\n",
    "        balance = rpc_client.getbalance()\n",
    "        logger.info(f\"Wallet balance after sending transaction: {balance} BTC\")\n",
    "        \n",
    "        # You can also check the balance of the specific address\n",
    "        address_balance = rpc_client.getreceivedbyaddress(new_address_a)\n",
    "        logger.info(f\"Balance of address {new_address_a}: {address_balance} BTC\")\n",
    "    \n",
    "    except JSONRPCException as e:\n",
    "        logger.error(f\"Error fetching wallet balance: {e}\")\n",
    "\n",
    "# Check wallet balance after the transaction\n",
    "check_wallet_balance()\n",
    "\n",
    "# Step 3: Get UTXOs from Address A\n",
    "try:\n",
    "    # Get unspent transaction outputs (UTXOs) for Address A\n",
    "    utxos = rpc_client.listunspent(0, 9999999, [new_address_a])\n",
    "    logger.info(f\"UTXOs for Address A: {utxos}\")\n",
    "    \n",
    "    if not utxos:\n",
    "        logger.error(\"No UTXOs found for Address A.\")\n",
    "        exit(1)\n",
    "    \n",
    "    # Select the first UTXO (this assumes a single UTXO, adjust if needed)\n",
    "    selected_utxo = utxos[0]\n",
    "    txid = selected_utxo[\"txid\"]\n",
    "    vout = selected_utxo[\"vout\"]\n",
    "    amount = selected_utxo[\"amount\"]\n",
    "    logger.info(f\"Selected UTXO: txid={txid}, vout={vout}, amount={amount} BTC\")\n",
    "\n",
    "except JSONRPCException as e:\n",
    "    logger.error(f\"Error retrieving UTXOs for Address A: {e}\")\n",
    "    exit(1)\n",
    "\n",
    "# Step 4: Create and sign the transaction\n",
    "try:\n",
    "    # Create the raw transaction input (spending UTXO from Address A)\n",
    "    inputs = [{\n",
    "        \"txid\": txid,\n",
    "        \"vout\": vout\n",
    "    }]\n",
    "    \n",
    "    # Create the raw transaction output (sending Bitcoin to Address B)\n",
    "    outputs = {\n",
    "        address_b: float(amount)-0.0001   # Send all funds minus a small fee (e.g., 0.0001 BTC)\n",
    "    }\n",
    "    \n",
    "    # Create the raw transaction\n",
    "    raw_tx = rpc_client.createrawtransaction(inputs, outputs)\n",
    "    logger.info(f\"Raw transaction created: {raw_tx}\")\n",
    "    \n",
    "    # Sign the transaction\n",
    "    signed_tx = rpc_client.signrawtransactionwithwallet(raw_tx)\n",
    "    logger.info(f\"Signed transaction hex: {signed_tx['hex']}\")\n",
    "    \n",
    "    # Extract signed transaction hex\n",
    "    signed_tx_hex = signed_tx[\"hex\"]\n",
    "\n",
    "except JSONRPCException as e:\n",
    "    logger.error(f\"Error creating or signing transaction: {e}\")\n",
    "    exit(1)\n",
    "\n",
    "# Step 5: Broadcast the signed transaction to the network\n",
    "try:\n",
    "    # Broadcast the signed transaction\n",
    "    txid_broadcast = rpc_client.sendrawtransaction(signed_tx_hex)\n",
    "    logger.info(f\"Broadcasted transaction with TXID: {txid_broadcast}\")\n",
    "\n",
    "except JSONRPCException as e:\n",
    "    logger.error(f\"Error broadcasting transaction: {e}\")\n",
    "    txid_broadcast = None  # If broadcasting fails, set txid_broadcast to None\n",
    "\n",
    "# Step 6: Mine blocks to confirm the transaction (on regtest)\n",
    "if txid_broadcast:\n",
    "    try:\n",
    "        logger.info(f\"Mining 6 blocks to confirm the transaction {txid_broadcast}...\")\n",
    "        rpc_client.generatetoaddress(6, address_b)  # Mine 6 blocks to confirm the transaction\n",
    "        logger.info(\"6 blocks mined.\")\n",
    "    except JSONRPCException as e:\n",
    "        logger.error(f\"Error mining blocks to confirm the transaction: {e}\")\n",
    "else:\n",
    "    logger.error(\"Transaction broadcasting failed. Mining cannot proceed.\")\n",
    "\n",
    "# Step 7: Check balances after transaction\n",
    "try:\n",
    "    # Check balance of Address B\n",
    "    balance_b = rpc_client.getreceivedbyaddress(address_b)\n",
    "    logger.info(f\"Balance of Address B after transaction: {balance_b} BTC\")\n",
    "\n",
    "except JSONRPCException as e:\n",
    "    logger.error(f\"Error checking balances: {e}\")\n",
    "\n",
    "# Step 8: Get UTXOs from Address B and create second transaction to Address C\n",
    "try:\n",
    "    # Get unspent transaction outputs (UTXOs) for Address B\n",
    "    utxos2 = rpc_client.listunspent(0, 9999999, [address_b])\n",
    "    logger.info(f\"UTXOs for Address B: {utxos2}\")\n",
    "    \n",
    "    if not utxos2:\n",
    "        logger.error(\"No UTXOs found for Address B.\")\n",
    "        exit(1)\n",
    "    \n",
    "    # Select the first UTXO (this assumes a single UTXO, adjust if needed)\n",
    "    selected_utxo2 = utxos2[0]\n",
    "    txid2 = selected_utxo2[\"txid\"]\n",
    "    vout2 = selected_utxo2[\"vout\"]\n",
    "    amount2 = selected_utxo2[\"amount\"]\n",
    "    logger.info(f\"Selected UTXO: txid={txid2}, vout={vout2}, amount={amount2} BTC\")\n",
    "\n",
    "except JSONRPCException as e:\n",
    "    logger.error(f\"Error retrieving UTXOs for Address B: {e}\")\n",
    "    exit(1)\n",
    "\n",
    "# Step 9: Create and sign the transaction for Address B to Address C\n",
    "try:\n",
    "    # Create the raw transaction input (spending UTXO from Address B)\n",
    "    inputs2 = [{\n",
    "        \"txid\": txid2,\n",
    "        \"vout\": vout2\n",
    "    }]\n",
    "    \n",
    "    # Create the raw transaction output (sending Bitcoin to Address C)\n",
    "    outputs2 = {\n",
    "        address_c: float(amount2)-0.00001   # Send all funds minus a small fee (e.g., 0.00001 BTC)\n",
    "    }\n",
    "    \n",
    "    # Create the raw transaction\n",
    "    raw_tx2 = rpc_client.createrawtransaction(inputs2, outputs2)\n",
    "    logger.info(f\"Raw transaction created: {raw_tx2}\")\n",
    "    \n",
    "    # Sign the transaction\n",
    "    signed_tx2 = rpc_client.signrawtransactionwithwallet(raw_tx2)\n",
    "    logger.info(f\"Signed transaction hex: {signed_tx2['hex']}\")\n",
    "    \n",
    "    # Extract signed transaction hex\n",
    "    signed_tx_hex2 = signed_tx2[\"hex\"]\n",
    "\n",
    "except JSONRPCException as e:\n",
    "    logger.error(f\"Error creating or signing transaction: {e}\")\n",
    "    exit(1)\n",
    "\n",
    "# Step 10: Broadcast the second signed transaction to the network\n",
    "try:\n",
    "    # Broadcast the signed transaction\n",
    "    txid_broadcast2 = rpc_client.sendrawtransaction(signed_tx_hex2)\n",
    "    logger.info(f\"Broadcasted transaction with TXID: {txid_broadcast2}\")\n",
    "\n",
    "except JSONRPCException as e:\n",
    "    logger.error(f\"Error broadcasting transaction: {e}\")\n",
    "    txid_broadcast2 = None  # If broadcasting fails, set txid_broadcast to None\n",
    "\n",
    "# Step 11: Mine blocks to confirm the second transaction (on regtest)\n",
    "if txid_broadcast2:\n",
    "    try:\n",
    "        logger.info(f\"Mining 6 blocks to confirm the transaction {txid_broadcast2}...\")\n",
    "        rpc_client.generatetoaddress(6, address_c)  # Mine 6 blocks to confirm the transaction\n",
    "        logger.info(\"6 blocks mined.\")\n",
    "    except JSONRPCException as e:\n",
    "        logger.error(f\"Error mining blocks to confirm the transaction: {e}\")\n",
    "else:\n",
    "    logger.error(\"Transaction broadcasting failed. Mining cannot proceed.\")\n",
    "\n",
    "# Step 12: Check balances after the second transaction\n",
    "try:\n",
    "    # Check balance of Address C\n",
    "    balance_c = rpc_client.getreceivedbyaddress(address_c)\n",
    "    logger.info(f\"Balance of Address C after transaction: {balance_c} BTC\")\n",
    "\n",
    "except JSONRPCException as e:\n",
    "    logger.error(f\"Error checking balances: {e}\")\n",
    "\n",
    "\n",
    "decoded_tx = rpc_client.decoderawtransaction(raw_tx, True)\n",
    "decoded_tx2 = rpc_client.decoderawtransaction(raw_tx2, True)\n",
    "\n",
    "pprint((f\"Decoded Transaction 1: {decoded_tx}\"))\n",
    "pprint((f\"Decoded Transaction 2: {decoded_tx2}\"))\n"
   ]
  },
  {
   "cell_type": "code",
   "execution_count": null,
   "metadata": {},
   "outputs": [],
   "source": []
  }
 ],
 "metadata": {
  "kernelspec": {
   "display_name": "base",
   "language": "python",
   "name": "python3"
  },
  "language_info": {
   "codemirror_mode": {
    "name": "ipython",
    "version": 3
   },
   "file_extension": ".py",
   "mimetype": "text/x-python",
   "name": "python",
   "nbconvert_exporter": "python",
   "pygments_lexer": "ipython3",
   "version": "3.11.7"
  }
 },
 "nbformat": 4,
 "nbformat_minor": 2
}
